{
  "contractName": "Storage",
  "abi": [
    {
      "inputs": [],
      "payable": false,
      "stateMutability": "nonpayable",
      "type": "constructor",
      "signature": "constructor"
    },
    {
      "constant": false,
      "inputs": [
        {
          "name": "_text",
          "type": "string"
        }
      ],
      "name": "set",
      "outputs": [],
      "payable": false,
      "stateMutability": "nonpayable",
      "type": "function",
      "signature": "0x4ed3885e"
    },
    {
      "constant": true,
      "inputs": [],
      "name": "get",
      "outputs": [
        {
          "name": "",
          "type": "string"
        }
      ],
      "payable": false,
      "stateMutability": "view",
      "type": "function",
      "signature": "0x6d4ce63c"
    },
    {
      "constant": true,
      "inputs": [],
      "name": "getOwner",
      "outputs": [
        {
          "name": "",
          "type": "address"
        }
      ],
      "payable": false,
      "stateMutability": "view",
      "type": "function",
      "signature": "0x893d20e8"
    }
  ],
  "bytecode": "0x60806040526040805190810160405280600581526020017f48456c6c6f0000000000000000000000000000000000000000000000000000008152506001908051906020019061004f9291906100a2565b5034801561005c57600080fd5b50336000806101000a81548173ffffffffffffffffffffffffffffffffffffffff021916908373ffffffffffffffffffffffffffffffffffffffff160217905550610147565b828054600181600116156101000203166002900490600052602060002090601f016020900481019282601f106100e357805160ff1916838001178555610111565b82800160010185558215610111579182015b828111156101105782518255916020019190600101906100f5565b5b50905061011e9190610122565b5090565b61014491905b80821115610140576000816000905550600101610128565b5090565b90565b6103bb806101566000396000f3fe608060405260043610610051576000357c0100000000000000000000000000000000000000000000000000000000900480634ed3885e146100565780636d4ce63c1461011e578063893d20e8146101ae575b600080fd5b34801561006257600080fd5b5061011c6004803603602081101561007957600080fd5b810190808035906020019064010000000081111561009657600080fd5b8201836020820111156100a857600080fd5b803590602001918460018302840111640100000000831117156100ca57600080fd5b91908080601f016020809104026020016040519081016040528093929190818152602001838380828437600081840152601f19601f820116905080830192505050505050509192919290505050610205565b005b34801561012a57600080fd5b5061013361021f565b6040518080602001828103825283818151815260200191508051906020019080838360005b83811015610173578082015181840152602081019050610158565b50505050905090810190601f1680156101a05780820380516001836020036101000a031916815260200191505b509250505060405180910390f35b3480156101ba57600080fd5b506101c36102c1565b604051808273ffffffffffffffffffffffffffffffffffffffff1673ffffffffffffffffffffffffffffffffffffffff16815260200191505060405180910390f35b806001908051906020019061021b9291906102ea565b5050565b606060018054600181600116156101000203166002900480601f0160208091040260200160405190810160405280929190818152602001828054600181600116156101000203166002900480156102b75780601f1061028c576101008083540402835291602001916102b7565b820191906000526020600020905b81548152906001019060200180831161029a57829003601f168201915b5050505050905090565b60008060009054906101000a900473ffffffffffffffffffffffffffffffffffffffff16905090565b828054600181600116156101000203166002900490600052602060002090601f016020900481019282601f1061032b57805160ff1916838001178555610359565b82800160010185558215610359579182015b8281111561035857825182559160200191906001019061033d565b5b509050610366919061036a565b5090565b61038c91905b80821115610388576000816000905550600101610370565b5090565b9056fea165627a7a723058203b79456f1f91c6ed80b100b53fd4b9ddca995f386d34e1c8dc4257b073f5bfee0029",
  "source": "pragma solidity ^0.5.0;\r\n\r\n/**\r\n * The Storage contract does this and that...\r\n */\r\ncontract Storage {\r\n\r\n\taddress payable owner;\r\n\tstring text = \"HEllo\";\r\n\r\n\tconstructor () public {\r\n\t\towner = msg.sender;\r\n\t}\t\r\n\r\n\tfunction set(string memory _text) public {\r\n\t\ttext = _text;\r\n\t}\r\n\r\n\tfunction get() public view returns(string memory) {\r\n\t\treturn text;\r\n\t}\r\n\r\n\tfunction getOwner() public view returns (address) {\r\n\t\treturn owner;\r\n\t}\r\n\r\n}\r\n\r\n",
  "sourcePath": "/mnt/e/ethereum/truffle_test/contracts/Storage.sol",
  "compiler": {
    "name": "solc",
    "version": "0.5.1+commit.c8a2cb62.Emscripten.clang"
  },
  "schemaVersion": "3.0.1",
  "updatedAt": "2019-02-07T19:49:09.566Z",
  "devdoc": {
    "methods": {}
  },
  "userdoc": {
    "methods": {},
    "notice": "The Storage contract does this and that...\r"
  }
}